:03000000020800F3
:0C080000787FE4F6D8FD758120020847DF
:0B0A2F00C0F9A4B0999282F88090FFFB
:0F0A1F0008080A0A0A0A0A0A0000011000C100AA
:10098A00438901758CF8758A30D2AFD2A9D28C30DE
:10099A000007C2001209238F12E51275F00A84F5C6
:0C09AA000EE51275F00A8485F00F80E362
:03000B0002088C5C
:10088C00C0E0C0F0C083C082C0D075D000C000C032
:10089C0001C002C003C004C005C006C007758CF8B7
:1008AC00758A301208D90511E511B464057511006B
:1008BC00D200D007D006D005D004D003D002D0018E
:0D08CC00D000D0D0D082D083D0F0D0E03268
:1008D900E5A0541F44E0F5A07580FF53A01FE5A0D3
:1008E900541F44C0F5A0AF107401A807088002C3C3
:1008F90033D8FCF58053A01FE5A0541F44E0F5A0B0
:1009090074082510F8E6900A2F93F58053A01F0567
:0A09190010E510B40803E4F5102205
:060A0E00D2947F027E007D
:0B0A1400EF1FAC0670011E4C70F622B4
:0209B600AD078B
:1009B800E4FB120A0EC2947F057E00120A14ED139E
:1009C80092947F427E00120A14EDC313FD0BBB08FC
:0A09D800E1D2947F0B7E00020A14A6
:10095800E4FDFB120A0EEDC313FDC2947F047E0072
:10096800120A14D2947F047E00120A1430940343AE
:1009780005807F427E00120A140BBB08D6D294AFC2
:010988000569
:01098900224B
:1009E200D20130011B120A0EC2947F267E02120A25
:1009F20014D2947F427E00120A14A294920180E2E1
:0B0A02007F267E02120A14D294A2018B
:010A0D0022C6
:100923001209E27FCC1209B67F441209B67FC87E52
:1009330000120A141209E27FCC1209B67FBE120913
:10094300B6120958AA07120958EFC454F0FFEAC4B3
:04095300540F4207F4
:01095700227D
:10080C0002098AE493A3F8E493A34003F68001F26F
:10081C0008DFF48029E493A3F85407240CC8C333ED
:10082C00C4540F4420C8834004F456800146F6DFBC
:10083C00E4800B0102040810204080900A1FE47E23
:10084C00019360BCA3FF543F30E509541FFEE493B1
:10085C00A360010ECF54C025E060A840B8E493A378
:10086C00FAE493A3F8E493A3C8C582C8CAC583CAA3
:10087C00F0A3C8C582C8CAC583CADFE9DEE780BE5B
:010A2E0000C7
:00000001FF
